:100000000C9434000C9449000C9449000C94490061
:100010000C9449000C9449000C9449000C9449003C
:100020000C9449000C9449000C9449000C9449002C
:100030000C9449000C9449000C9449000C9449001C
:100040000C9449000C9449000C944B000C9449000A
:100050000C9449000C9449000C9449000C944900FC
:100060000C9449000C94490011241FBECFEFD8E036
:10007000DEBFCDBF11E0A0E0B1E0EAE4F1E002C0F4
:1000800005900D92A230B107D9F70E9461000C943F
:10009000A3000C9400001F920F920FB60F92112430
:1000A0008F939F932E9A8091C60090E090930101C8
:1000B000809300019F918F910F900FBE0F901F9022
:1000C0001895279A559A569A219A229A5398579892
:1000D000529820982F981092C5008CE08093C4000D
:1000E00088E98093C10086E08093C200269A7894C4
:1000F0002E9880910001909101018130910519F4B1
:100100005D985E9805C08230910541F45D985E9AD5
:1001100088EE93E000000197E9F7EACF833091057C
:1001200011F45D9AEECF8430910519F429982A983C
:10013000EFCF8530910519F429982A9AE9CF0697CF
:0A01400039F7299AF4CFF894FFCFA5
:02014A00FFFFB5
:00000001FF
